:100EC700753A86753B9FE53B153BAE3A7002153A7E
:040ED7004E70F32244
:10095B00120AF0120E4EE4FBFDFF120D6C7B01E44C
:10096B00FD7F12120D6C7B3AE4FD7F22120CA47BEF
:10097B00027D02E4FF120D6C7B037D027F12120DD0
:10098B006C7B3A7D027F22120CA4120E25120EC72D
:10099B00120EC7120EC7120EC7120EC7120E257BF0
:1009AB00007A007909120BA092003000ECE5097572
:1009BB00F00A8475F00A84E5F02430F50EFBE4FDB3
:1009CB007F2A120CA4E50975F00A84E5F02430F5B2
:1009DB000FFBE4FD7F32120CA47B25E4FD7F3A1262
:1009EB000CA47B52E4FD7F42120CA47B48E4FD7FF8
:1009FB004A120CA4E50B75F00A8475F00A84E5F035
:100A0B002430F50EFB7D027F2A120CA4E50B75F04A
:100A1B000A84E5F02430F50FFB7D027F32120CA423
:0F0A2B007B047D027F3A120D6CE4F5100209A4E2
:100EDB00EFD39400400B7E667D03DDFEDEFA1F80B0
:010EEB00EF17
:010EEC0022E3
:040F24007F0CDFFE61
:010F280022A6
:080F1B007F037E04DEFEDFFA15
:010F230022AB
:100E2500E4FCD2B0C2B07F14120EDBD2B0120F1B9D
:100E350030B002C32220B009ECC394C850030C8023
:080E4500F4120F1B120F1BD366
:010E4D002282
:060BA0008B1A8A1B891C60
:100BA600E4F51DFEFD751E01F51FFC751E80E51E94
:100BB600602F20B009EEC394C850030E80F4120FC4
:100BC60024E51E30B004421D8003F4521D30B009E6
:100BD600EDC394C850030D80F4E51EC313F51E80C3
:100BE600CDAB1AAA1BA91C8C82758300E51D120ABF
:100BF60067E4F51D0CBC05B3E4FFAB1AAA1BA91CE0
:100C06008F82758300120A3A251FF51F0FBF04EA6B
:100C1600AB1AAA1BA91C900004120A3AFFE51FFE94
:090C2600F51FEEB50702D322C34D
:010C2F0022A2
:100003000000000000000000002F000000000700B7
:10001300070000147F147F1400242A7F2A12006231
:1000230064081323003649552250000005030000DD
:1000330000001C224100000041221C000014083E65
:1000430008140008083E0808000000A0600000082B
:10005300080808080000606000000020100804027F
:10006300003E5149453E0000427F4000004261513D
:100073004946002141454B31001814127F100027D7
:1000830045454539003C4A4949300001710905039A
:1000930000364949493600064949291E00003636CB
:1000A300000000005636000000081422410000142E
:1000B300141414140000412214080002015109060B
:1000C30000324959513E007C1211127C007F49498C
:1000D3004936003E41414122007F4141221C007FBD
:1000E30049494941007F09090901003E4149497ACB
:1000F300007F0808087F0000417F41000020404145
:100103003F01007F08142241007F40404040007FB0
:10011300020C027F007F0408107F003E4141413EF4
:10012300007F09090906003E4151215E007F09193C
:1001330029460046494949310001017F0101003F39
:100143004040403F001F2040201F003F4038403FB9
:10015300006314081463000708700807006151491D
:10016300454300007F41410000552A552A550000B0
:1001730041417F000004020102040040404040402E
:10018300000001020400002054545478007F4844C6
:10019300443800384444442000384444487F0038FD
:1001A3005454541800087E0901020018A4A4A47C26
:1001B300007F080404780000447D400000408084F0
:1001C3007D00007F102844000000417F4000007C38
:1001D30004180478007C0804047800384444443844
:1001E30000FC242424180018242418FC007C080490
:1001F300040800485454542000043F444020003C69
:100203004040207C001C2040201C003C4030403CEF
:10021300004428102844001CA0A0A07C004464547F
:100223004C441414141414140000000000000000C3
:100233000000000000000000000000F800000000C3
:10024300000000333000000000100C06100C060004
:10025300000000000000000040C07840C07840006B
:10026300043F04043F040400007088FC08300000CD
:10027300001820FF211E0000F008F000E018000025
:1002830000211C031E211E0000F0088870000000DE
:100293001E2123241927211010160E000000000030
:1002A3000000000000000000000000E0180402004D
:1002B300000000071820400000020418E0000000BE
:1002C3000040201807000000404080F080404000BC
:1002D3000202010F01020200000000F00000000012
:1002E3000101011F010101000000000000000000E6
:1002F30080B070000000000000000000000000005B
:1003030000010101010101010000000000000000E3
:10031300003030000000000000000000806018047E
:10032300006018060100000000E010080810E0005B
:10033300000F102020100F00001010F80000000024
:100343000020203F2020000000700808088870006B
:1003530000302824222130000030088888483000EB
:100363000018202020110E000000C02010F800000B
:1003730000070424243F240000F8088888080800A4
:100383000019212020110E0000E0108888180000B9
:10039300000F112020110E0000380808C83808008B
:1003A3000000003F0000000000708808088870000B
:1003B300001C222121221C0000E010080810E0008C
:1003C3000000312222110F00000000C0C000000015
:1003D300000000303000000000000080000000003A
:1003E3000000806000000000000080402010080032
:1003F30000010204081020004040404040404000FB
:1004030004040404040404000008102040800000D5
:100413000020100804020100007048080808F000DA
:100423000000003036010000C030C828E810E000AA
:100433000718272423140B000000C038E000000035
:10044300203C23020227382008F88888887000009F
:10045300203F202020110E00C03008080808380073
:10046300071820202010080008F808080810E000EA
:10047300203F202020100F0008F88888E80810008B
:10048300203F20202320180008F88888E80810005F
:10049300203F200003000000C03008080838000097
:1004A30007182020221E020008F808000008F80898
:1004B300203F210101213F20000808F8080800001F
:1004C3000020203F2020000000000808F808080052
:1004D300C08080807F00000008F888C028180800CA
:1004E300203F20012638200008F808000000000003
:1004F300203F20202020300008F8F800F8F80800FA
:10050300203F003F003F200008F830C00008F808F3
:10051300203F200007183F00E01008080810E00003
:100523000F10202020100F0008F808080808F0001A
:10053300203F210101010000E01008080810E0003D
:100543000F18242438504F0008F8888888887000D2
:10055300203F2000030C3020007088080808380072
:100563000038202121221C00180808F80808180068
:100573000000203F2000000008F808000008F808E9
:10058300001F202020201F000878880000C838089A
:10059300000007380E010000F80800F80008F80012
:1005A300033C0700073C03000818688080681808AC
:1005B30020302C03032C30200838C800C83808002A
:1005C3000000203F2000000010080808C838080079
:1005D3002038262120201800000000FE020202001D
:1005E3000000007F40404000000C30C000000000CD
:1005F300000000010638C00000020202FE000000F5
:10060300004040407F00000000000402020204009A
:1006130000000000000000000000000000000000D7
:1006230080808080808080800002020400000000BF
:1006330000000000000000000000808080800000B7
:100643000019242222223F2008F8008080000000A5
:10065300003F112020110E00000000808080000068
:10066300000E112020201100000000808088F80077
:10067300000E112020103F200000808080800000A9
:10068300001F222222221300008080F0888888180D
:100693000020203F20200000000080808080800018
:1006A300006B94949493600008F8008080800000AD
:1006B300203F210000203F20008098980000000088
:1006C3000020203F202000000000008098980000B8
:1006D30000C08080807F000008F8000080808000D8
:1006E300203F24022D302000000808F800000000FD
:1006F3000020203F202000008080808080808000B8
:10070300203F20003F20003F808000808080000049
:10071300203F210000203F200000808080800000D7
:10072300001F202020201F00808000808000000008
:1007330080FFA12020110E00000000808080800037
:10074300000E112020A0FF80808080008080800028
:1007530020203F2120000100000080808080800055
:100763000033242424241900008080E080800000CA
:100773000000001F20200000808000000080800017
:10078300001F202020103F20808080000080808078
:1007930000010E3008060100808000800080808008
:1007A3000F300C030C300F0000808000808080002D
:1007B3000020312E0E312000808080000080808058
:1007C30080818E7018060100008080808080800008
:1007D3000021302C2221300000000000807C020226
:1007E30000000000003F404000000000FF00000048
:1007F30000000000FF0000000002027C80000000F7
:100803000040403F00000000000601010202040412
:1008130000000000000000001060028C00FE9292B5
:1008230092929292FE00000000000000000000007F
:10083300000000000000000004047E014448507FD3
:1008430040407F504844400000000000000000008A
:1008530000000000000000000000FC242424FC250C
:100863002624FC24242404000000000000000000CF
:10087300000000000000000040308F80844C5525AC
:100883002525554C808080000000000000000000FA
:1008930000000000000000001060028C0000FE92C7
:1008A30092929292FE0000000000000000000000FF
:1008B300000000000000000004047E01407E42426C
:1008C3007E427E42427E40000000000000000000A5
:1008D30000000000000000000000FC242424FC258C
:1008E3002624FC242424040000000000000000004F
:1008F300000000000000000040308F80844C55252C
:100903002525554C80808000000000000000000079
:100913000000000000000000060909E6F80C0402CC
:1009230002020202041E000000000000000000009A
:100933000000000000000000000000071F302040FE
:100943004040404020100000000000000000000074
:0809530000000000000000009C
:100E9500EF4E60157D087C07ED1DAA0470011C4A04
:090EA50070F6EF1F70EA1E80E7F1
:010EAE002221
:100DEC00F583E5822CF582E43583F583E493FF7D6E
:010DFC0001F5
:100DFD00ED6004D2908002C290C294E4FEC293EFE3
:100E0D0030E704D2928002C292D293EF25E0FF0E1A
:070E1D00BE08EAD294D29056
:010E240022AB
:100E7500AC07ED24B0FFE4FD120DFDEC54F0C454B5
:100E85000F4410FF120DFDEC540F4401FF020DFD40
:100EED00E4FD7F8D120DFD7F14120DFD7FAF020D00
:010EFD00FDF7
:100EFE00E4FD7F8D120DFD7F10120DFD7FAE020DF4
:010F0E00FDE5
:100E4E00E4FCEC24B0FFE4FD120DFDE4FF120DFDF9
:100E5E007F10120DFDE4FB7D01E4FF120DFD0BBBB7
:060E6E0080F50CBC08DC5D
:010E7400225B
:060CA400AA07A905AF0339
:100CAA00E4FCEF24E0FBEAD3947F4004E4FA090968
:100CBA00AF02AD01120E75E4FC75F010EBA42CF531
:100CCA0082E435F0F583E582242BF582E58334024C
:100CDA00120DF60CBC08E2AF02E904FD120E75E42F
:100CEA00FC75F010EBA42CF582E435F0F583E5826F
:100CFA002433F582E5833402120DF60CBC08E22295
:040EAF008F3CA905C6
:100EB3007F017E00AD0119ED6009AD3C7C00120A93
:030EC3008980F132
:010EC6002209
:080C30008F2B8D2C8A2D8B2ED9
:100C3800E4F533F531E531C3952F505FC3E52F95C2
:100C48003114FD7F0A120EAFAC2DAD2ECFCDCFCE15
:100C5800CCCE120A9B7C007D0A120A9B8D32E533AA
:100C68007020E52F14FFE531C39F5016E532700F51
:100C7800E530C3138531F0A4252BFF7B2080137545
:100C88003301E530C3138531F0A4252BFFE5322469
:0B0C980030FBAD2C120CA40531809A3B
:010CA300222E
:0A0DAF008F348D358B368A37893872
:100DB900E4F539AB36AA37A938853982758300122B
:100DC9000A3AFB601DAD35AF34120CA47408253402
:100DD900F534D394784007E4F534053505350539FC
:020DE90080D1B7
:010DEB0022E5
:040D6C00AA07A90524
:100D7000E4F51A120E75E4FC75F040EBA4241BF5A3
:100D800082E5F03408120DEC051A0CBC10EAAF0233
:100D9000E904FD120E75E4FC75F040EBA4243BF56C
:0E0DA00082E5F03408120DEC051A0CBC10EAC6
:010DAE002222
:040D0A008F218B2387
:100D0E00E4F528F529E5245407700BE52413131395
:100D1E00541FF52A800AE524131313541F04F52AD1
:100D2E008D2AE52AC395245034AD2AAF21120E75B3
:100D3E00AC21ECC395235021AB25AA26A927052962
:100D4E00E529AE287002052814F5828E83120A3A20
:0D0D5E00FF7D01120DFD0C80D9052A80C516
:010D6B002265
:100AF000D2917F647E00120E95C2917F647E0012B7
:100B00000E95D291E4FD7FAE120DFDE4FF120DFDB6
:100B10007F10120DFD7F40120DFD7F81120DFD7FB4
:100B2000CF120DFD7FA1120DFD7FC8120DFD7FA616
:100B3000120DFD7FA8120DFD7F3F120DFD7FD31218
:100B40000DFDE4FF120DFD7FD5120DFD7F80120D0E
:100B5000FD7FD9120DFD7FF1120DFD7FDA120DFD23
:100B60007F12120DFD7FDB120DFD7F40120DFD7F08
:100B700020120DFD7F02120DFD7F8D120DFD7F14E1
:100B8000120DFD7FA4120DFD7FA6120DFD7FAF1289
:100B90000DFD7FAF120DFD120E4EE4FDFF020E752E
:03000000020F0FDD
:0C0F0F00787FE4F6D8FD75813C02095B98
:100A3A00BB010CE58229F582E5833AF583E0225071
:100A4A0006E92582F8E622BBFE06E92582F8E222BB
:0D0A5A00E58229F582E5833AF583E49322D5
:100A6700F8BB010DE58229F582E5833AF583E8F0C5
:100A7700225006E92582C8F622BBFE05E92582C871
:020A8700F22259
:100A8900EF8DF0A4A8F0CF8CF0A428CE8DF0A42E81
:020A9900FE223B
:100A9B00BC000BBE0029EF8DF084FFADF022E4CC3F
:100AAB00F875F008EF2FFFEE33FEEC33FCEE9DEC08
:100ABB00984005FCEE9DFE0FD5F0E9E4CEFD22ED4E
:100ACB00F8F5F0EE8420D21CFEADF075F008EF2F98
:100ADB00FFED33FD4007985006D5F0F222C398FD89
:050AEB000FD5F0EA2226
:00000001FF
